00015501 HanseMerkur Allgemeine Versich                              0308201003082010          1.31.31.3                                                                                                                        1.1         1                  1
01005501  020          VS123450112345-67  1Mayer                                                       Hansi                                                67098 Bad Dürkheim                                                   01121980   01                 1
01005501  020          VS123450112345-67  1Vermittler                                                  Friedrich                                         D  68163 Mannheim                 Schulstrasse 47                       18031952D  14                11
01005501  020          VS123450112345-67                                                                  0011223344  99887766                              1                                                                                       1 0000000002
02005501  020          VS123450112345-67  20107200801072009010720088A12000000000 0 0 0 0 12072010 00000         EUR000000014780                                                                   00000000000000                                       000000001
02105501  020          VS123450112345-67    000                                                                                                                00000000000000000000000000000000000000000000000000000000000   00000 00000      00000000         1
02205501  020          VS123450112345-67  01   1  Mayer                         Hansi                                             01121980   10000                                 000000000                 EUR000000000000                                    
02205501  020          VS123450112345-67  010012 0TARIF                                   004T052W           000000000000000000000000  0000000000000000EUR000000000000000000000000000000000000000000000000000000000000  0000000000000 00000                     
02205501  020          VS123450112345-67  010013 000000000000000000000000000000000000000000000000000000000000000000000000000000000000000000000000000000000  EUR0000000000000000      0000000000000000                                                           
08005501  020          VS123450112345-67  SALIA000000000000000000000000000000000000Vollversicherung              12345-67  0416-00                                                                                                                             1
9999000000040012345-67  
