00014711 Musterabsender                VERMITTLER 0815000            00000000130420040815000   2.02.02.02.22.22.22.22.22.2                                                                                                      1.1         920000             1
00014711 Musterabsender                VERMITTLER 0815000            00000000130420040815000                                                                                                                     1.0                  1.0                      2
00524711  050          ?021570010815000   0011304200422300425032004                                                                    000000000000                                                                                                            1
01004711  050          ?021570010815000   0Mustermann GmbH               c/o Max Gruppe AG                                                                  60598 Frankfurt/M.             Teststr.  55                  77 22 4400000000   01                 1
01004711  050          ?021570010815000   0Mustermann GmbH               c/o Max Gruppe AG                                                                  60591 Frankfurt/M.             Teststr.  55                  77 22 4400000000   31                 1
02004711  050          ?021570010815000   125032004010120050101000011  0000000001        00000000100000  ?021570EUR000000000000                              0000022           004711             00000000000000                                   EUR0        1
02104711  050          ?021570010815000   1120000                                        060369412AB34CD         HH-OO 123   250320040000000000000 1EUR0000000000000                                   000000000000000000000000                                1
02104711  050          ?021570010815000        000000                              01   0000000000000000  00000000000000                              000000000000                                                                                             2
02204711  051          ?021570010815000   000000000000000000000000    5105000000000000000000000000000     0000000000001500000000000000000000000000000000 00000000        0000000000             0001                                                           1
02204711  053          ?021570010815000   000000000000000000000000    7200000000000000000000000000000000000000000  0000000000 00000000                                                                                                                         1
99524711  050          ?021570010815000                                                                                                                                                                                                                        1
00524711  050          ?021579010815000   0011304200422300516032004                                                                    000000000000                                                                                                            1
01004711  050          ?021570010815000   1Mustermann                                                  Max                                                  60598 Frankfurt/M.             Teststr.  55                  77 22 4400000000   01                 1
01004711  050          ?021570010815000   1Mustermann                                                  Max                                                  60591 Frankfurt/M.             Teststr.  55                  77 22 4400000000   31                 1
02004711  050          ?021579010815000   116032004010120050101000011  0000000001        00000000100000  ?021579EUR000000000000                              0000021           004712             00000000000000                                   EUR0        1
02104711  050          ?021579010815000   1120740                                        060369334AB45CD         HH-OO 456   160320040000000000000 1EUR000000000000                                    000000000000000000000000                                1
02104711  050          ?021579010815000        000000                              01   0000000000000000  00000000000000                              000000000000                                                                                             2
02204711  051          ?021579010815000   000000000000000001012004    5105000000000000000000000000003SF  01000000000001500010000000000000000001003000000 00000000        0000000000             0001                                                           1
99524711  050          ?021579010815000                                                                                                                                                                                                                        1
00524711  050          ?021580010815000   0011304200422300501042004                                                                    000000000000                                                                                                            1
01004711  050          ?021570010815000   0Mustermann GmbH               c/o Max Gruppe AG                                                                  60598 Frankfurt/M.             Teststr.  55                  77 22 4400000000   01                 1
01004711  050          ?021570010815000   0Mustermann GmbH               c/o Max Gruppe AG                                                                  60591 Frankfurt/M.             Teststr.  55                  77 22 4400000000   31                 1
02004711  050          ?021580010815000   101042004010120050101000011  0000000001        00000000100000  ?021580EUR000000000000                              0000021           004713             00000000000000                                   EUR0        1
02104711  050          ?021580010815000   1121500                                        071095845AB67CD         HH-OO 789   010420040000000000000 1EUR000000000000                                    000000000000000000000000                                1
02104711  050          ?021580010815000        000000                              01   0000000000000000  00000000000000                              000000000000                                                                                             2
02204711  051          ?021580010815000   000000000000000001012004    5105000000000000000000000000003SF  01000000000001500010000000000000000001003000000 00000000        0000000000             0001                                                           1
02204711  052          ?021580010815000   000000000000000001012004    3403SF  01000000000001500010000000000000000001003000000  0000000000 0000000000000000000000                                                                                               1
99524711  050          ?021580010815000                                                                                                                                                                                                                        1
00524711  050          ?021593010815000   0011304200422300510032004                                                                    000000000000                                                                                                            1
01004711  050          ?021570010815000   1Mustermann                                                  Max                                                  60598 Frankfurt/M.             Teststr.  55                  77 22 4400000000   01                 1
01004711  050          ?021570010815000   1Mustermann                                                  Max                                                  60591 Frankfurt/M.             Teststr.  55                  77 22 4400000000   31                 1
02004711  050          ?021593010815000   110032004010120050101000011  0000000001        00000000100000  ?021593EUR000000000000                              0000008           004714             00000000000000                                   EUR0        1
02104711  050          ?021593010815000   1120960                                        058877867AB89CD         HH-OO 357   100320040000000000000 1EUR0000000000000                                   000000000000000000000000                                1
02104711  050          ?021593010815000        000000                              01   0000000000000000  00000000000000                              000000000000                                                                                             2
02204711  051          ?021593010815000   000000000000000012022004    5105000000000000000000000000004SF  01000000000002000010000000000000000001003000000 00000000        0000000000             0001                                                           1
02204711  053          ?021593010815000   000000000000000012022004    7200000000020000100000000000000000010030000  0000000000 00000000                                                                                                                         1
99524711  050          ?021593010815000                                                                                                                                                                                                                        1
999900000001080815000   00000000000000000000000000000+00000000000000+00000000000000+00000000000000+                                                                                                                                                             